:020000040800F2
:100000000050002005060008790400087F0400085D
:10001000850400088B04000891040008000000001B
:10002000000000000000000000000000970400082D
:10003000A304000800000000AF040008BB0400088F
:100040004D0600084D0600084D0600084D06000844
:100050004D0600084D0600084D0600084D06000834
:100060004D0600084D0600084D0600084D06000824
:100070004D0600084D0600084D0600084D06000814
:100080004D0600084D0600084D0600084D06000804
:100090004D0600084D0600084D0600084D060008F4
:1000A0004D0600084D0600084D0600084D060008E4
:1000B0004D0600084D0600084D0600084D060008D4
:1000C0004D0600084D0600084D0600084D060008C4
:1000D0004D0600084D0600084D0600084D060008B4
:1000E000C90400084D0600084D0600080000000085
:1000F0000000000000000000000000000000000000
:0C01000000000000000000005FF808F1A3
:10010C0010B5054C237833B9044B13B10448AFF345
:10011C0000800123237010BD70000020000000003F
:10012C00C827000808B5034B1BB103490348AFF3BC
:10013C00008008BD0000000074000020C8270008E3
:10014C0080B483B000AF78604FF06043D3F8803E4A
:10015C0003F00103002B13D04FF06043D3F8003EA3
:10016C0003F00103002B0BD000E000BF4FF0604305
:10017C001B68002BF9D04FF060437A68D2B21A702A
:10018C007B6818460C37BD4680BC7047B0B58CB048
:10019C0000AF00F057FA00F027F800F061F80F4BB1
:1001AC003C1D1D460FCD0FC42B6823600C4BFB620E
:1001BC00391D07F118031422184601F0A3FB094B53
:1001CC001B78002BFBD000F0ADF807F11803184694
:1001DC0000F0CEF8034B00221A70F0E7E02700087D
:1001EC00E0AFDCBAAC00002080B590B000AF07F1F6
:1001FC00180328220021184601F064FB3B1D002245
:10020C001A605A609A60DA601A610223BB6101239A
:10021C00BB621023FB6200237B6307F118031846B3
:10022C0000F03EFF0346002B01D000F0E8F80F234E
:10023C007B600023BB600023FB6000233B61002339
:10024C007B613B1D0021184601F0AAF90346002BE7
:10025C0001D000F0D4F800BF4037BD4680BD00008F
:10026C0080B588B000AF07F1100300221A605A6005
:10027C009A60DA60274B9B69264A43F0100393611E
:10028C00244B9B6903F01003FB60FB68214B9B69BB
:10029C00204A43F0040393611E4B9B6903F0040353
:1002AC00BB60BB681B4B9B691A4A43F00803936104
:1002BC00184B9B6903F008037B607B6800222021AC
:1002CC00154800F0B3FE4FF400533B61134B7B61B8
:1002DC000223BB6107F110031946114800F022FDFF
:1002EC0020233B6101237B610023BB610223FB6163
:1002FC0007F110031946084800F014FD00220021F4
:10030C00282000F0D8FA282000F0F1FA00BF20379E
:10031C00BD4680BD001002400008014000001110D5
:10032C000010014080B500AF00F06CFB0C4B0022BC
:10033C001A600B4B0B4A9A60094B0122DA600A498E
:10034C00074800F047FC0346002B05D0064B1B6802
:10035C001946064801F0BEFA00F07AFB00BF80BDDA
:10036C009000002000C000088C000020F42700083A
:10037C0080B584B000AF78600023FB6000F042FBD6
:10038C000023BB6014E0FB6803F1006101F5404100
:10039C007B68BA6853F822301A464FF000030220EB
:1003AC0000F0C0FAFB680433FB60BB680133BB6030
:1003BC00BB68052BE7D900F04BFB00BF1037BD46DF
:1003CC0080BD80B586B000AFF860B9607A6000235C
:1003DC007B6100237B6109E0BB685A1CBA601B7807
:1003EC001846FFF7ADFE7B6901337B617A697B6848
:1003FC009A42F1DB7B6818461837BD4680BD80B445
:10040C0000AF72B600BFFEE780B485B000AF154BED
:10041C009B69144A43F001039361124B9B6903F0EF
:10042C000103BB60BB680F4BDB690E4A43F0805382
:10043C00D3610C4BDB6903F080537B607B680A4B08
:10044C005B68FB60FB6823F0E063FB60FB6843F0D8
:10045C000073FB60044AFB68536000BF1437BD4651
:10046C0080BC7047001002400000014080B400AF17
:10047C00FEE780B400AFFEE780B400AFFEE780B4C7
:10048C0000AFFEE780B400AFFEE780B400AF00BF62
:10049C00BD4680BC704780B400AF00BFBD4680BC79
:1004AC00704780B400AF00BFBD4680BC704780B5BC
:1004BC0000AF00F00DF900BF80BD000080B500AFAB
:1004CC004FF4005000F0CAFD044B01221A700122B7
:1004DC002021034800F0AAFD00BF80BDAC00002025
:1004EC000008014080B586B000AFF860B9607A6052
:1004FC0000237B610AE0AFF300800146BB685A1C05
:10050C00BA60CAB21A707B6901337B617A697B6805
:10051C009A42F0DB7B6818461837BD4680BD80B424
:10052C0083B000AF78604FF0FF3318460C37BD46F0
:10053C0080BC704780B483B000AF786039603B6892
:10054C004FF400525A60002318460C37BD4680BC4D
:10055C00704780B483B000AF7860012318460C3725
:10056C00BD4680BC704780B485B000AFF860B96000
:10057C007A60002318461437BD4680BC70470000D3
:10058C0080B586B000AF7860144A154BD31A7B61E6
:10059C007B693B61134B1B68002B02D1114B124A38
:1005AC001A60104B1A687B6813443A699A4207D256
:1005BC0001F05EF903460C221A604FF0FF3309E09C
:1005CC00084B1B68FB60074B1A687B681344054A91
:1005DC001360FB6818461837BD4680BD00500020DC
:1005EC0000040000A0000020E800002080B400AF50
:1005FC0000BFBD4680BC70470C480D490D4A002316
:10060C0002E0D458C4500433C4188C42F9D30A4ABB
:10061C000A4C002301E013600432A242FBD3FFF723
:10062C00E5FF01F02BF9FFF7B1FD7047000000204A
:10063C0070000020D028000870000020E800002086
:10064C00FEE7000080B500AF084B1B68074A43F07B
:10065C0010031360032000F023F90F2000F008F8BA
:10066C00FFF7D2FE0023184680BD00BF00200240D9
:10067C0080B582B000AF7860124B1A68124B1B78B1
:10068C0019464FF47A73B3FBF1F3B2FBF3F318464C
:10069C0000F03BF90346002B01D001230EE07B68F0
:1006AC000F2B0AD8002279684FF0FF3000F003F9C5
:1006BC00064A7B681360002300E0012318460837C4
:1006CC00BD4680BD00000020080000200400002072
:1006DC0080B400AF054B1B781A46054B1B681344BE
:1006EC00034A136000BFBD4680BC70470800002061
:1006FC00B000002080B400AF024B1B681846BD460A
:10070C0080BC7047B000002080B485B000AF78602A
:10071C007B6803F00703FB600C4BDB68BB60BA68BB
:10072C004FF6FF031340BB60FB681A02BB68134310
:10073C0043F0BF6343F40033BB60044ABB68D3602F
:10074C0000BF1437BD4680BC704700BF00ED00E011
:10075C0080B400AF044BDB681B0A03F00703184698
:10076C00BD4680BC704700BF00ED00E080B483B094
:10077C0000AF0346FB7197F90730002B0BDBFB79BD
:10078C0003F01F02064997F907305B09012000FAB4
:10079C0002F241F8232000BF0C37BD4680BC7047E5
:1007AC0000E100E080B483B000AF03463960FB7118
:1007BC0097F90730002B0ADB3B68DAB20C4997F942
:1007CC0007301201D2B20B4483F800230AE03B68D5
:1007DC00DAB20849FB7903F00F03043B1201D2B2E1
:1007EC000B441A7600BF0C37BD4680BC704700BF67
:1007FC0000E100E000ED00E080B489B000AFF860EB
:10080C00B9607A60FB6803F00703FB61FB69C3F115
:10081C000703042B28BF0423BB61FB690433062B9D
:10082C0002D9FB69033B00E000237B614FF0FF32F0
:10083C00BB6902FA03F3DA43BB681A407B699A403E
:10084C004FF0FF317B6901FA03F3D9437B680B400E
:10085C00134318462437BD4680BC704780B582B020
:10086C0000AF78607B68013BB3F1807F01D301233B
:10087C000FE00A4A7B68013B53600F214FF0FF30B9
:10088C00FFF790FF054B00229A60044B07221A6079
:10089C00002318460837BD4680BD00BF10E000E0BD
:1008AC0080B582B000AF78607868FFF72DFF00BF8D
:1008BC000837BD4680BD80B586B000AF0346B96031
:1008CC007A60FB7300237B61FFF742FF78617A68E3
:1008DC00B9687869FFF790FF024697F90F30114617
:1008EC001846FFF75FFF00BF1837BD4680BD80B5C7
:1008FC0082B000AF0346FB7197F907301846FFF73B
:10090C0035FF00BF0837BD4680BD80B582B000AF53
:10091C0078607868FFF7A2FF034618460837BD4693
:10092C0080BD0000F0B587B000AFF860B960C7E9D2
:10093C0000230123FB750023BB7500237B752F4B14
:10094C001B7E012B01D1022354E02C4B01221A7681
:10095C004CF2503000F0A8F80346FB75FB7D002BE1
:10096C0044D1FB68012B02D101237B7507E0FB68A6
:10097C00022B02D102237B7501E004237B7500233B
:10098C00BB752DE0BB7D5A00BB6802EB030CBB7D35
:10099C001901D7E90023C1F12006A1F1200022FAA8
:1009AC0001F403FA06F6344323FA00F0044323FA65
:1009BC0001F5A3B21946604600F05AF84CF25030DB
:1009CC0000F072F80346FB750D4B1B690C4A23F0C3
:1009DC0001031361FB7D002B07D1BB7D0133BB757C
:1009EC00BA7D7B7D9A42CDD300E000BF034B002241
:1009FC001A76FB7D18461C37BD46F0BDB8000020AA
:100A0C000020024080B483B000AF0023FB710D4B7B
:100A1C001B6903F08003002B0DD00A4B0A4A5A6065
:100A2C00084B0A4A5A60074B1B6903F08003002BE2
:100A3C0001D00123FB71FB7918460C37BD4680BCF5
:100A4C00704700BF0020024023016745AB89EFCD02
:100A5C0080B400AF054B1B69044A43F0800313615B
:100A6C0000231846BD4680BC704700BF00200240E2
:100A7C0080B483B000AF78600B467B80084B0022BB
:100A8C00DA61084B1B69074A43F0010313617B6869
:100A9C007A881A8000BF0C37BD4680BC704700BFF7
:100AAC00B80000200020024080B584B000AF786010
:100ABC00FFF720FEF86010E07B68B3F1FF3F0CD02D
:100ACC007B68002B07D0FFF715FE0246FB68D31A94
:100ADC007A689A4201D2032325E0154BDB6803F0B8
:100AEC000103002BE8D1124BDB6803F02003002B31
:100AFC0002D00F4B2022DA600D4BDB6803F01003A1
:100B0C00002B0BD10A4BDB6903F00103002B05D141
:100B1C00074BDB6803F00403002B03D000F00AF84A
:100B2C00012300E0002318461037BD4680BD00BFEE
:100B3C000020024080B483B000AF00237B60234BC5
:100B4C00DB6803F01003002B09D0214BDB6943F069
:100B5C0002031F4AD3617B6843F010037B601B4B7D
:100B6C00DB6803F00403002B09D0194BDB6943F05D
:100B7C000103174AD3617B6843F004037B60134B7A
:100B8C00DB6903F00103002B0BD0114BDB6943F045
:100B9C0004030F4AD3610D4BDB690C4A23F00103AC
:100BAC00D3617B6840F20112934206D1074BDB699B
:100BBC00064A23F00103D36102E0044A7B68D36048
:100BCC0000BF0C37BD4680BC704700BF0020024000
:100BDC00B800002080B584B000AF78603960012384
:100BEC00FB730023BB602F4B1B7E012B01D1022317
:100BFC0053E02C4B01221A767B681B68022B16D112
:100C0C004CF25030FFF750FF0346002B41D101202E
:100C1C0000F04CF84CF25030FFF746FF0346FB73E4
:100C2C00214B1B69204A23F00403136131E04CF281
:100C3C005030FFF739FF0346002B2AD13B684FF0A9
:100C4C00FF321A607B689B68BB6019E0B86800F0E3
:100C5C0049F84CF25030FFF727FF0346FB73124B59
:100C6C001B69114A23F002031361FB7B002B03D099
:100C7C003B68BA681A600CE0BB6803F58063BB6024
:100C8C007B68DB689A027B689B681344BA689A425B
:100C9C00DCD3044B00221A76FB7B18461037BD467A
:100CAC0080BD00BFB80000200020024080B483B09B
:100CBC0000AF7860094B0022DA61094B1B69084AC6
:100CCC0043F004031361064B1B69054A43F04003D0
:100CDC00136100BF0C37BD4680BC7047B8000020C4
:100CEC000020024080B483B000AF78600B4B002230
:100CFC00DA610B4B1B690A4A43F002031361084A81
:100D0C007B685361064B1B69054A43F04003136132
:100D1C0000BF0C37BD4680BC704700BFB800002038
:100D2C000020024080B48BB000AF786039600023A3
:100D3C007B6200233B6269E101227B6A02FA03F3C6
:100D4C00FB613B681B68FA691340BB61BA69FB69BC
:100D5C009A4240F058813B685B689A4A93425ED055
:100D6C00984A934275D8984A934258D0964A9342DF
:100D7C006FD8964A934252D0944A934269D8944A77
:100D8C0093424CD0924A934263D8924A934246D0B3
:100D9C00904A93425DD8122B2AD8122B59D801A213
:100DAC0052F823F02B0E0008050E0008170E000851
:100DBC00590E00085F0E00085F0E00085F0E000859
:100DCC005F0E00085F0E00085F0E00085F0E000843
:100DDC005F0E00085F0E00085F0E00085F0E000833
:100DEC005F0E00085F0E00080D0E0008210E0008B3
:100DFC00794A934213D02CE03B68DB683B6229E0D4
:100E0C003B68DB6804333B6224E03B68DB680833F7
:100E1C003B621FE03B68DB680C333B621AE03B68CB
:100E2C009B68002B02D104233B6213E03B689B6858
:100E3C00012B05D108233B627B68FA691A6109E032
:100E4C0008233B627B68FA695A6103E000233B622A
:100E5C0000E000BFBB69FF2B01D87B6801E07B6819
:100E6C0004337B61BB69FF2B02D87B6A9B0002E0D9
:100E7C007B6A083B9B003B617B691A680F213B69CD
:100E8C0001FA03F3DB431A40396A3B6901FA03F3B5
:100E9C001A437B691A603B685B6803F08053002B34
:100EAC0000F0B1804D4B9B694C4A43F001039361B8
:100EBC004A4B9B6903F00103BB60BB68484A7B6AE1
:100ECC009B08023352F82330FB607B6A03F0030368
:100EDC009B000F2202FA03F3DB43FA681340FB601A
:100EEC007B68404A934213D07B683F4A93420DD0B3
:100EFC007B683E4A934207D07B683D4A934201D1BE
:100F0C00032306E0042304E0022302E0012300E0B3
:100F1C0000237A6A02F0030292009340FA681343AA
:100F2C00FB602F497B6A9B080233FA6841F8232047
:100F3C003B685B6803F48033002B06D02D4B1A689A
:100F4C002C49BB6913430B6006E02A4B1A68BB693A
:100F5C00DB43284913400B603B685B6803F40033A8
:100F6C00002B06D0234B5A682249BB6913434B60B4
:100F7C0006E0204B5A68BB69DB431E4913404B60AB
:100F8C003B685B6803F48013002B06D0194B9A68FE
:100F9C001849BB6913438B6006E0164B9A68BB6912
:100FAC00DB43144913408B603B685B6803F400130C
:100FBC00002B21D00F4BDA680E49BB691343CB6071
:100FCC0021E000BF000032100000311000002210A0
:100FDC00000021100000121000001110001002403F
:100FEC000000014000080140000C014000100140CD
:100FFC0000140140000401400B4BDA68BB69DB4371
:10100C0009491340CB607B6A01337B623B681A68E9
:10101C007B6A22FA03F3002B7FF48EAE00BF00BF75
:10102C002C37BD4680BC70470004014080B483B0AF
:10103C0000AF78600B467B8013467B707B78002B6F
:10104C0003D07A887B681A6103E07B881A047B687A
:10105C001A6100BF0C37BD4680BC704780B582B0AA
:10106C0000AF0346FB80084B5A69FB881340002BEA
:10107C0006D0054AFB885361FB88184600F006F839
:10108C0000BF0837BD4680BD0004014080B483B06A
:10109C0000AF0346FB8000BF0C37BD4680BC7047D9
:1010AC0080B586B000AF78607B68002B01D101233E
:1010BC006CE27B681B6803F00103002B00F0878057
:1010CC00924B5B6803F00C03042B0CD08F4B5B68CA
:1010DC0003F00C03082B12D18C4B5B6803F48033A8
:1010EC00B3F5803F0BD1894B1B6803F40033002B05
:1010FC006CD07B685B68002B68D1012346E27B686F
:10110C005B68B3F5803F06D1804B1B687F4A43F484
:10111C00803313602EE07B685B68002B0CD17B4B1B
:10112C001B687A4A23F480331360784B1B68774A28
:10113C0023F4802313601DE07B685B68B3F5A02F5C
:10114C000CD1724B1B68714A43F4802313606F4BB4
:10115C001B686E4A43F4803313600BE06B4B1B68C7
:10116C006A4A23F480331360684B1B68674A23F484
:10117C00802313607B685B68002B13D0FFF7BAFAEF
:10118C00386108E0FFF7B6FA02463B69D31A642BC4
:10119C0001D90323FAE15D4B1B6803F40033002BE8
:1011AC00F0D014E0FFF7A6FA386108E0FFF7A2FAD6
:1011BC0002463B69D31A642B01D90323E6E1534B56
:1011CC001B6803F40033002BF0D100E000BF7B68F8
:1011DC001B6803F00203002B63D04C4B5B6803F0DD
:1011EC000C03002B0BD0494B5B6803F00C03082B52
:1011FC001CD1464B5B6803F48033002B16D1434B58
:10120C001B6803F00203002B05D07B681B69012BC4
:10121C0001D00123BAE13D4B1B6823F0F8027B6837
:10122C005B69DB00394913430B603AE07B681B694F
:10123C00002B20D0364B01221A60FFF75BFA386185
:10124C0008E0FFF757FA02463B69D31A022B01D983
:10125C0003239BE12D4B1B6803F00203002BF0D002
:10126C002A4B1B6823F0F8027B685B69DB0027497B
:10127C0013430B6015E0264B00221A60FFF73AFA75
:10128C00386108E0FFF736FA02463B69D31A022BA5
:10129C0001D903237AE11D4B1B6803F00203002BD9
:1012AC00F0D17B681B6803F00803002B3AD07B68F5
:1012BC009B69002B19D0174B01221A60FFF71AFA01
:1012CC00386108E0FFF716FA02463B69D31A022B85
:1012DC0001D903235AE10D4B5B6A03F00203002B87
:1012EC00F0D0012000F0A6FA1CE00A4B00221A6094
:1012FC00FFF700FA38610FE0FFF7FCF902463B6993
:10130C00D31A022B08D9032340E100BF001002407E
:10131C0000004242800442429E4B5B6A03F002038F
:10132C00002BE9D17B681B6803F00403002B00F051
:10133C00A6800023FB75974BDB6903F08053002BD1
:10134C000DD1944BDB69934A43F08053D361914B9D
:10135C00DB6903F08053BB60BB680123FB758E4BCC
:10136C001B6803F48073002B18D18B4B1B688A4AC3
:10137C0043F480731360FFF7BDF9386108E0FFF7A1
:10138C00B9F902463B69D31A642B01D90323FDE05A
:10139C00814B1B6803F48073002BF0D07B68DB68F7
:1013AC00012B06D17B4B1B6A7A4A43F00103136273
:1013BC002DE07B68DB68002B0CD1764B1B6A754AE1
:1013CC0023F001031362734B1B6A724A23F004036C
:1013DC0013621CE07B68DB68052B0CD16D4B1B6A20
:1013EC006C4A43F0040313626A4B1B6A694A43F06C
:1013FC00010313620BE0674B1B6A664A23F001037F
:10140C001362644B1B6A634A23F0040313627B6808
:10141C00DB68002B15D0FFF76DF938610AE0FFF798
:10142C0069F902463B69D31A41F28832934201D9D9
:10143C000323ABE0574B1B6A03F00203002BEED0E7
:10144C0014E0FFF757F938610AE0FFF753F9024649
:10145C003B69D31A41F28832934201D9032395E0B8
:10146C004C4B1B6A03F00203002BEED1FB7D012BCE
:10147C0005D1484BDB69474A23F08053D3617B6825
:10148C00DB69002B00F08180424B5B6803F00C039E
:10149C00082B61D07B68DB69022B46D13F4B0022C5
:1014AC001A60FFF727F9386108E0FFF723F90246C5
:1014BC003B69D31A022B01D9032367E0354B1B6818
:1014CC0003F00073002BF0D17B681B6AB3F5803FEF
:1014DC0008D1304B5B6823F400327B689B682D4944
:1014EC0013434B602B4B5B6823F474127B68196AB3
:1014FC007B685B6A0B43274913434B60274B0122E4
:10150C001A60FFF7F7F8386108E0FFF7F3F80246C6
:10151C003B69D31A022B01D9032337E01D4B1B68FF
:10152C0003F00073002BF0D02FE01C4B00221A604C
:10153C00FFF7E0F8386108E0FFF7DCF802463B699A
:10154C00D31A022B01D9032320E0124B1B6803F0A2
:10155C000073002BF0D118E07B68DB69012B01D103
:10156C00012313E00B4B5B68FB60FB6803F48032D8
:10157C007B681B6A9A4206D1FB6803F470127B6885
:10158C005B6A9A4201D0012300E000231846183709
:10159C00BD4680BD00100240007000406000424219
:1015AC0080B584B000AF786039607B68002B01D1C6
:1015BC000123D0E06A4B1B6803F007033A689A4298
:1015CC0010D9674B1B6823F0070265493B6813432E
:1015DC000B60634B1B6803F007033A689A4201D017
:1015EC000123B8E07B681B6803F00203002B20D0BA
:1015FC007B681B6803F00403002B05D0594B5B6818
:10160C00584A43F4E06353607B681B6803F008039B
:10161C00002B05D0534B5B68524A43F46053536024
:10162C00504B5B6823F0F0027B689B684D49134379
:10163C004B607B681B6803F00103002B40D07B6878
:10164C005B68012B07D1474B1B6803F40033002B5D
:10165C0015D101237FE07B685B68022B07D1414BDE
:10166C001B6803F00073002B09D1012373E03D4B81
:10167C001B6803F00203002B01D101236BE0394BF3
:10168C005B6823F003027B685B68364913434B604D
:10169C00FFF730F8F8600AE0FFF72CF80246FB6819
:1016AC00D31A41F28832934201D9032353E02D4BD4
:1016BC005B6803F00C027B685B689B009A42EBD181
:1016CC00274B1B6803F007033A689A4210D2244B4D
:1016DC001B6823F0070222493B6813430B60204B25
:1016EC001B6803F007033A689A4201D0012332E0E9
:1016FC007B681B6803F00403002B08D0194B5B6854
:10170C0023F4E0627B68DB68164913434B607B680B
:10171C001B6803F00803002B09D0124B5B6823F401
:10172C0060527B681B69DB000E4913434B6000F071
:10173C0021F802460B4B5B681B0903F00F030A49A7
:10174C00CB5C22FA03F3094A1360094B1B68184659
:10175C00FEF78EFF002318461037BD4680BD00BF34
:10176C000020024000100240202800080000002049
:10177C000400002090B48AB000AF2A4B3C1D0FCB64
:10178C0084E80F0040F201233B800023FB6100231F
:10179C00BB6100237B6200237B6100233B62224BF5
:1017AC005B68FB61FB6903F00C03042B02D0082B74
:1017BC0003D02DE01D4B3B622DE0FB699B0C03F02D
:1017CC000F0307F12802134413F8243C7B61FB69D7
:1017DC0003F48033002B13D0134B5B685B0C03F0CA
:1017EC00010307F12802134413F8283CBB617B6901
:1017FC000E4A02FB03F2BB69B2FBF3F37B6204E01B
:10180C007B690B4A02FB03F37B627B6A3B6202E05F
:10181C00064B3B6200BF3B6A18462837BD4690BC5E
:10182C00704700BF102800080010024000127A0018
:10183C0000093D0080B485B000AF78600A4B1B688E
:10184C000A4AA2FB03235B0A7A6802FB03F3FB60E0
:10185C0000BFFB685A1EFA60002BF9D100BF00BF15
:10186C001437BD4680BC704700000020D34D621079
:10187C00014B1868704700BF0C00002070B50026A3
:10188C000C4D0D4C641BA410A64209D100F096FF20
:10189C0000260A4D0A4C641BA410A64205D170BD4B
:1018AC0055F8043B98470136EEE755F8043B98474A
:1018BC000136F2E7C8280008C8280008C828000824
:1018CC00CC28000803460244934200D1704703F829
:1018DC00011BF9E70FB40A4B13B51C6824B1A369BB
:1018EC0013B9204600F07AF805AB2046049AA1689B
:1018FC00019300F095F902B0BDE8104004B07047B8
:10190C000C000020034610B5013932B111F8014F1B
:10191C00013A03F8014B002CF7D100211A449342F1
:10192C0000D110BD03F8011BF9E70000002310B52E
:10193C000446C0E90033C0E9043383608181436607
:10194C00C2818361194608225C30FFF7BBFF054B4F
:10195C0024626362044BA362044BE362044B236373
:10196C0010BD00BFD9210008FB210008332200085C
:10197C0057220008014900F0AFB800BF312500081C
:10198C0070B568254A1E55430E4605F1740100F0EA
:10199C00C5F8044640B10021C0E900160C30A06027
:1019AC0005F16802FFF78EFF204670BD014800F07C
:1019BC00B3B800BFE0000020014800F0AEB800BF93
:1019CC00E0000020014800F0A7B800BFDB000020B9
:1019DC00014800F0A2B800BFDB00002010B504469F
:1019EC00FFF7F0FFA3691BB1BDE81040FFF7F0BF94
:1019FC00C4E912332365134B134A1B68A262A3423A
:101A0C0008BF0123204608BFA36100F01FF86060E7
:101A1C00204600F01BF8A060204600F017F80022CA
:101A2C000421E0606068FFF781FF01220921A068B2
:101A3C00FFF77CFF02221221E068FFF777FF0123FA
:101A4C00A361D1E73028000881190008F8B50746D2
:101A5C00FFF7ACFF1E4B1E68B36913B93046FFF796
:101A6C00BDFF4836D6E90134013B03D533680BB3CF
:101A7C003668F7E7B4F90C50D5B9164B04F1580099
:101A8C00E360656600F047F8FFF796FF08222946E9
:101A9C00C4E90155C4E904552560A56104F15C0055
:101AAC00FFF710FFC4E90D55C4E912552046F8BDE7
:101ABC006834D9E704213846FFF762FF04463060EA
:101ACC000028D5D1FFF778FF0C233B60EEE700BF71
:101ADC00302800080100FFFF2DE9F8430646884630
:101AEC00002700F14804D4E90195B9F1010905D5A5
:101AFC002468002CF7D13846BDE8F883AB89012B5C
:101B0C0007D9B5F90E30013303D029463046C0470A
:101B1C0007436835E9E7704770477047F8B5CD1C47
:101B2C0025F0030508350C2D38BF0C25002D064675
:101B3C0001DBA94203D90C2333600020F8BD00F06F
:101B4C00B1FD21490A6814469CB9204F3B6823B962
:101B5C002146304600F02AFB38602946304600F01A
:101B6C0025FB431C23D10C233046336000F0A0FD31
:101B7C00E3E723685B1B17D40B2B03D923601C44AE
:101B8C00256004E06368A2420CBF0B6053603046D2
:101B9C0000F08EFD04F10B00231D20F00700C21A8B
:101BAC00CCD01B1AA350C9E722466468CCE7C41CEE
:101BBC0024F00304A042E3D0211A304600F0F6FAD8
:101BCC000130DDD1CFE700BFA4000020A800002029
:101BDC00936810B4013B002B936007DA9469A3421D
:101BEC0001DB0A2902D110BC00F034BB1368581C6D
:101BFC0010601970084610BC7047F8B506460F46C1
:101C0C001446D518AC4201D1002007E03A463046C4
:101C1C0014F8011BFFF7DCFF431CF3D1F8BD0000E7
:101C2C002DE9F04F0D461446984606469DB018B166
:101C3C0083690BB9FFF7D2FE894B9D421BD17568A6
:101C4C006B6ED90705D4AB899A0502D4A86DFFF742
:101C5C0063FFAB891B0701D52B69EBB929463046CD
:101C6C0000F05CFBC0B16B6EDC070ED54FF0FF30A3
:101C7C001DB0BDE8F08F7B4B9D4201D1B568DFE70D
:101C8C00794B9D4208BFF568DAE7AB899805EDD42E
:101C9C00A86DFFF742FFE9E70023099320238DF895
:101CAC00293030234FF00109CDF80C80DFF8BC81CE
:101CBC008DF82A3023469A4613F8012B0AB1252AAF
:101CCC00F9D1BAEB040B0BD05B46224629463046C1
:101CDC00FFF793FF013000F0AA80099A5A44099249
:101CEC009AF80030002B00F0A28000234FF0FF3256
:101CFC00CDE905230AF1010A049307938DF85330BB
:101D0C001A935446052214F8011B584800F0BCFCE9
:101D1C00049AD8B9D10644BF20238DF85330130749
:101D2C0044BF2B238DF853309AF800302A2B15D052
:101D3C00544600204FF00A0C079A214611F8013B3B
:101D4C00303B092B4ED9B0B1079214E0A0EB08033D
:101D5C0009FA03F31343A2460493D2E7039B191D1C
:101D6C001B680391002BBBBF5B4242F0020207933E
:101D7C000793B8BF049223782E2B0CD163782A2BAF
:101D8C0035D1039B02341A1D1B680392002BB8BF7C
:101D9C004FF0FF330593DFF8E4A00322504621787F
:101DAC0000F072FC40B14023A0EB0A0003FA00F0F3
:101DBC00049B01340343049314F8011B06222C48A2
:101DCC008DF8281000F060FC00283FD0294B1BBB7D
:101DDC00039B073323F0070308330393099B3B440E
:101DEC00099367E70C4601200CFB0232A5E70023A0
:101DFC004FF00A0C194601340593204610F8012BBC
:101E0C00303A092A03D9002BC5D00591C3E7044603
:101E1C0001230CFB0121F0E703AB00932A4630466B
:101E2C00154B04A9AFF300800746781CD6D16B6E16
:101E3C00D90705D4AB899A0502D4A86DFFF76DFEBE
:101E4C00AB895B063FF512AF099811E703AB009322
:101E5C002A463046084B04A900F082F8E4E700BF9C
:101E6C005428000874280008342800089428000816
:101E7C009E28000800000000071C00089A28000893
:101E8C002DE9F047164699468A680B690746934236
:101E9C00B8BF1346336091F843200C46DDF8208020
:101EAC000AB1013333602368990642BF33680233A9
:101EBC003360256815F0060506D104F1190AE368AC
:101ECC0032689B1AAB4228DC94F84320131E22681C
:101EDC0018BF012392062DD44946384604F143021B
:101EEC00C047013020D02368E56803F00603042BBB
:101EFC0018BF002532684FF00006A36808BFAD1A62
:101F0C00226908BF25EAE5759342C4BF9B1AED18F8
:101F1C001A34B5421AD1002008E001235246494632
:101F2C003846C047013003D14FF0FF30BDE8F08791
:101F3C000135C4E73020E11881F843005A1C94F8AD
:101F4C0045102244023382F84310C5E70123224690
:101F5C0049463846C0470130E6D00136D9E7000083
:101F6C002DE9FF470C46277E9146782F80469A46EE
:101F7C000C9904F1430207D8622F0AD8002F00F005
:101F8C00D980582F00F0A48004F1420684F84270E6
:101F9C003AE0A7F16303152BF6D801A050F823F013
:101FAC000520000819200008951F0008951F00083F
:101FBC00951F0008951F000819200008951F0008A0
:101FCC00951F0008951F0008951F00082721000881
:101FDC004920000809210008951F0008951F0008DA
:101FEC0049210008951F000849200008951F00088A
:101FFC00951F0008112100080B6804F142061A1DF8
:10200C001B680A6084F842300123A4E02568086844
:10201C002E0600F104030AD505680B60002D03DAC7
:10202C002D236D4284F843300A235E4819E015F0E5
:10203C00400F05680B6018BF2DB2EFE70B682568E1
:10204C00181D0860280601D51D6802E06906FBD53D
:10205C001D886F2F0CBF08230A235248002184F8D7
:10206C0043106668002EA8BF2168A660A4BF21F0AB
:10207C00040121600DB9002E4DD01646B5FBF3F1CD
:10208C0003FB1157C75D06F8017D2F46BB420D4679
:10209C00F4D9082B0BD12368DF0708D523696168B5
:1020AC009942DEBF302306F8013C06F1FF36921B45
:1020BC0022614B4621464046CDF800A003AAFFF70B
:1020CC00DFFE01304CD14FF0FF3004B0BDE8F0879B
:1020DC00344884F845700E68236856F8045B1F0674
:1020EC000E6014D5D90744BF43F0200323601DB9FB
:1020FC00236823F0200323601023AFE7236843F009
:10210C00200323607823284884F84530E3E75E06F3
:10211C0048BFADB2E6E71646BBE70B6826681D1D47
:10212C0060690D6035061B6801D5186002E0710608
:10213C00FBD51880002316462361BAE70B681A1DDD
:10214C000A601E6800213046626800F09DFA08B1F2
:10215C00801B606063682361002384F84330A8E728
:10216C003246494640462369D0470130ABD02368FC
:10217C009B0713D4E068039B9842B8BF1846A4E7AA
:10218C000123324649464046D04701309BD00135A9
:10219C00E36803995B1AAB42F2DCEBE7002504F130
:1021AC001906F5E7A5280008B628000838B500235D
:1021BC00054D044608462B60FEF7E2F9431C02D19C
:1021CC002B6803B1236038BDE400002010B50C4629
:1021DC00B1F90E1000F0BEFA0028ABBF636DA389F5
:1021EC001B1823F48053ACBF6365A38110BD2DE98C
:1021FC00F0411F468B890546DB050C46164605D576
:10220C0002230022B1F90E1000F0C8F9A38932465E
:10221C0023F48053A38128463B46B4F90E10BDE845
:10222C00F04100F069B810B50C46B1F90E1000F091
:10223C00B5F9431CA38915BF606523F4805343F49F
:10224C008053A38118BFA38110BDB1F90E1000F00B
:10225C00D3B80000F8B50E461446054618B183698C
:10226C000BB9FFF7BBFB214B9C422BD16C68A369CC
:10227C00A360A3891A072FD523696BB32369206840
:10228C00F6B2C01A63693746834204DC21462846FD
:10229C0000F048F930BBA3680130013BA360236810
:1022AC005A1C22601E706369834204D0A389DB0729
:1022BC0006D50A2E04D12146284600F033F988B9F8
:1022CC003846F8BD0A4B9C4201D1AC68CFE7094BAC
:1022DC009C4208BFEC68CAE72146284600F01EF86D
:1022EC000028CBD04FF0FF37EAE700BF5428000896
:1022FC00742800083428000838B5044608461146EE
:10230C000022054D2A601A46FEF75BF8431C02D1E9
:10231C002B6803B1236038BDE4000020324B70B54C
:10232C001D6806460C4625B1AB6913B92846FFF764
:10233C0055FB2E4B9C420FD16C68A389B4F90C2031
:10234C0019072CD4DD0611D40923336042F0400365
:10235C004FF0FF30A3813EE0254B9C4201D1AC688D
:10236C00EBE7244B9C4208BFEC68E6E7580712D514
:10237C00616B41B104F14403994202D0304600F044
:10238C009DF900236363A38923F02403A381002315
:10239C00636023692360A38943F00803A381236945
:1023AC004BB9A38903F42073B3F5007F03D0214606
:1023BC00304600F029F9A089B4F90C2010F0010383
:1023CC000AD00023A36063695B42A361236943B90C
:1023DC0010F08000BAD170BD810758BF6369A3604B
:1023EC00F4E70020F7E700BF0C0000205428000899
:1023FC00742800083428000838B50023054D04461D
:10240C0008462B60FEF78BF8431C02D12B6803B1F6
:10241C00236038BDE40000208A892DE9F04105468F
:10242C0010070C4658D44B68002B05DC0B6C002BAA
:10243C0002DC0020BDE8F081E66A002EF9D0002312
:10244C0012F480522F682B6032D0606DA3895A072A
:10245C0005D56368C01A636B0BB1236CC01A0023DB
:10246C000246E66A2846216AB047431CA38906D176
:10247C0029681D292CD82A4ACA40D60728D50022FB
:10248C0062602269D904226004D5421C01D12B68F8
:10249C0003B96065616B2F600029CAD004F1440355
:1024AC00994202D0284600F009F900206063C1E788
:1024BC00216A01232846B047411CC7D12B68002B49
:1024CC00C4D01D2B01D0162B01D12F60B1E7A389ED
:1024DC0043F04003A381ADE70F69002FA9D0930708
:1024EC0018BF00230E6808BF4B69A6EB07080F60E6
:1024FC008B60B8F1000F9CDD43463A462846216AB2
:10250C00A66AB047002806DCA3894FF0FF3043F0E1
:10251C004003A3818EE70744A8EB0008E9E700BF5E
:10252C000100402038B50B6905460C4613B900254F
:10253C00284638BD18B183690BB9FFF74FFA144B15
:10254C009C421BD16C68B4F90C30002BEFD0626E3E
:10255C00D00704D4990502D4A06DFFF7DDFA284604
:10256C002146FFF759FF636E0546DA07E0D4A389CD
:10257C009B05DDD4A06DFFF7D0FAD9E7054B9C4243
:10258C0001D1AC68DFE7044B9C4208BFEC68DAE78A
:10259C0054280008742800083428000838B504466C
:1025AC00084611460022054D2A601A46FDF7DBFF4E
:1025BC00431C02D12B6803B1236038BDE40000201A
:1025CC0070B50E46B1F90E10144600291D4696B092
:1025DC0007DA00232B60B3891A0610D44FF48063FA
:1025EC000EE06A4600F0C8F80028F2DB019A02F40B
:1025FC007042A2F500535A425A412A60EEE740233A
:10260C000020236016B070BD8B8973B59D070646FC
:10261C000C4607D504F14703236023610123636152
:10262C0002B070BD6A4601ABFFF7CAFF00990546C0
:10263C003046FFF773FA48B9B4F90C309A05EFD469
:10264C0023F0030343F00203A381E3E70D4BB362D2
:10265C00A389206043F08003A381009B2061636108
:10266C00019B5BB13046B4F90E1000F097F828B11D
:10267C00A38923F0030343F00103A381A08905433D
:10268C00A581CDE781190008034610B5C9B20244F3
:10269C009342184601D1002003E0047801338C42A8
:1026AC00F6D110BD0148FFF737BA00BFDC0000209F
:1026BC000148FFF732BA00BFDC00002038B50546F0
:1026CC00002943D051F8043C0C1F002BB8BFE41870
:1026DC00FFF7E8FF1E4A1368104633B963601460B5
:1026EC002846BDE83840FFF7E3BFA3420AD921686A
:1026FC006218934201BF1A685B68521822606360CB
:10270C000460EDE71A465B680BB1A342FAD9116875
:10271C005018A0420BD1206801445018834211601C
:10272C00DED118685B68014411605360D8E702D9A8
:10273C000C232B60D4E7206821188B4201BF196849
:10274C005B680918216063605460C9E738BD00BF3D
:10275C00A400002038B50446084611460022054D59
:10276C002A601A46FDF7BEFE431C02D12B6803B14A
:10277C00236038BDE400002038B50023064D044624
:10278C00084611462B60FDF7D5FE431C02D12B6881
:10279C0003B1236038BD00BFE400002038B500232E
:1027AC00054D044608462B60FDF7D3FE431C02D1B1
:1027BC002B6803B1236038BDE4000020F8B500BFDE
:1027CC00F8BC08BC9E467047F8B500BFF8BC08BC06
:0427DC009E4670475E
:1027E00048656C6C6F2053544D333220776F726C98
:1027F0006421000045524153494E47204552524FF3
:10280000523A207061676520256C750A000000004F
:1028100002030405060708090A0B0C0D0E0F101021
:102820000000000000000000010203040607080980
:102830001000002000000000000000000000000068
:102840000000000000000000000000000000000088
:102850000000000000000000000000000000000078
:102860000000000000000000000000000000000068
:102870000000000000000000000000000000000058
:102880000000000000000000000000000000000048
:1028900000000000232D302B2000686C4C00656682
:1028A00067454647003031323334353637383941A1
:1028B00042434445460030313233343536373839B7
:0828C0006162636465660000BB
:0428C80031010008D2
:0428CC000D010008F2
:1028D0000024F4001000000001000000100000209F
:1028E000000000005428000874280008342800085C
:1028F00000000000000000000000000000000000D8
:1029000000000000000000000000000000000000C7
:1029100000000000000000000000000000000000B7
:1029200000000000000000000000000000000000A7
:102930000000000000000000000000000000000097
:0400000508000605E4
:00000001FF
